:1000000000308A00DD280000FF00030E8301A100FC
:100010000A08A0008A010408A2007708A300780853
:10002000A4007908A5007A08A600831383128C30F7
:100030008400001C1D280C182E2822088400230888
:10004000F7002408F8002508F9002608FA0020081F
:100050008A00210E8300FF0E7F0E09008A110A120A
:1000600046283808F8013702031839283708F700FE
:100070004528F7010830B900B70DF70D38087702A9
:100080000318F700F80DB90B3C280800831685010A
:100090008312270885002808B7000A30B8003120ED
:1000A0007708AB002808B7000A30B800312078087C
:1000B000B7000A30B80031207708AC002C0EF700EA
:1000C000F030F70577082B04B600831686018312FB
:1000D000360886002908B7000A30B80031207708B2
:1000E000AD002908B7000A30B80031207808B70001
:1000F0000A30B80031207708AE002E0EF700F0303D
:10010000F70577082D04B6000030B3008316870189
:100110008312360887002A08B7000A30B800312059
:100120007708AF002A08B7000A30B80031207808F5
:10013000B7000A30B80031207708B000300EF70061
:10014000F030F70577082F04B60083168801831274
:1001500036088800831605168312051EA70A27088D
:100160000A3C031DC528A701A80A28083C3C031D1A
:10017000C528A801A90A29083C3C031DC528A901D6
:10018000AA0A2A08183C0319AA010C108A110A129B
:100190001D2835308400831300080319DC2806303D
:1001A000F800F701F70BD228F80BD1287B30F700C5
:1001B000F70BD828800BCF280800A701A801A901B8
:1001C000AA01AB01AC01AD01AE01AF01B001B101BB
:1001D000B201FF30B30083161F149F141F159F1127
:1001E00083131F308305B5308312900083160C14DF
:1001F000C03083128B04831605168312051E032953
:100200000130B2000429B201831605168312051EBF
:10021000A429831685168312851E1529B10A310873
:10022000043C031D15290130B1003108013A0319BE
:100230002029033A03195929013A03198529A329C9
:10024000831609148312091C3729A80A28083C3C84
:10025000031D3629A801A90A29083C3C031D36299B
:10026000A901AA0A2A08183C0319AA0151298316D0
:1002700089148312891C5129A8032808FF3C031DF7
:1002800051293B30A800A9032908FF3C031D51292F
:100290003B30A900AA032A08FF3C031D512917304F
:1002A000AA000230B400FA30B500C920B40B5329BB
:1002B000A329831609148312091C6A29A90A29088B
:1002C0003C3C031D6929A901AA0A2A08183C031904
:1002D000AA017D29831689148312891C7D29A9030B
:1002E0002908FF3C031D7D293B30A900AA032A08E9
:1002F000FF3C031D7D291730AA000230B400FA30FC
:10030000B500C920B40B7F29A329831609148312D1
:10031000091C9029AA0A2A08183C0319AA019C2939
:10032000831689148312891C9C29AA032A08FF3C7E
:10033000031D9C291730AA000230B400FA30B50022
:0C034000C920B40B9E290929FB2863008A
:02400E00323F3F
:00000001FF
;PIC16F877
;CRC=679A  CREATED="28-May-20 16:12"
